:020000040800F2
:10000000180E0020A9010008254900082D4000080D
:10001000F34700089D1B0008BD5A000800000000BF
:100020000000000000000000000000004F52000827
:10003000131E0008000000004D520008A9530008DC
:10004000C3010008C3010008C3010008C301000880
:10005000C3010008C3010008C3010008C301000870
:10006000C3010008C3010008C3010008D11D000836
:10007000C3010008C3010008C3010008C301000850
:10008000DD1D0008C3010008C3010008C30100080A
:10009000C3010008C3010008C3010008C301000830
:1000A000C3010008C3010008C3010008C301000820
:1000B000FD540008C3010008C3010008C301000883
:1000C000C3010008C3010008C3010008C301000800
:1000D000C3010008C3010008A95A0008C3010008B1
:1000E000C3010008C3010008C301000800F002F8C2
:1000F00000F04AF80AA090E8000C82448344AAF178
:100100000107DA4501D100F03FF8AFF2090EBAE875
:100110000F0013F0010F18BFFB1A43F0010318473B
:100120001075000030750000103A24BF78C878C1FF
:10013000FAD8520724BF30C830C144BF04680C60ED
:10014000704700000023002400250026103A28BF35
:1001500078C1FBD8520728BF30C148BF0B60704739
:10016000662905F0A887642900F094800020704774
:100170001FB500F0D7FC04000020002105F03CFD75
:10018000E0601FBD10B510BD00F0CCFD1146FFF7BB
:10019000EFFF05F0CDFC00F0EAFD03B4FFF7F2FF3E
:1001A00003BC00F02DFE00000948804709480047C5
:1001B000FEE7FEE7FEE7FEE7FEE7FEE7FEE7FEE717
:1001C000FEE7FEE704480549054A064B7047000074
:1001D0002D540008ED00000818080020180E00201B
:1001E000180A0020180A00200FB41CB5074B06AAF5
:1001F0007B4469460090059800F041FC0020694668
:1002000000F050FC1CBC5DF814FB0000B1080000BD
:100210000FB41CB50C0007AA009001D02044401E6A
:10022000074B7B4469460190069800F028FC002C9F
:1002300003D06946002000F035FC1CBC5DF814FBBF
:100240008908000070B5044685690068C10601D5BB
:10025000302600E02026C00707D070BDD4E9012178
:1002600030469047206A401C20626D1EF6D570BD56
:1002700070B5044685690078C00707D170BDD4E920
:10028000012120209047206A401C20626D1EF6D577
:1002900070BD00002DE9F041064600241068752964
:1002A000314616A510D0AFF30080002802DA404294
:1002B00013A507E031688A0701D512A502E04907B6
:1002C00004D511A5012401E0AFF3008000210A222A
:1002D00006F1240709E0B0FBF2FCB0FBF2F302FBED
:1002E0001C00303078541846491C0028F3D12346AE
:1002F0002A463046BDE8F04100F054B90000000045
:100300002D0000002B000000200000002DE9F05F10
:10031000894604464FF0000ADFF824B1FB44C0F8D8
:1003200020A02046E168884700287DD0252806D0F7
:10033000D4E901219047206A401C2062F1E70025A2
:100340005F462046E16888472028064607DB312EB5
:1003500005D2B81910F8200C08B10543F1E7A80739
:1003600001D525F00405C4F81CA00027C4F818A086
:100370002A2E09D0304605F0C6FB38B304EB8708B7
:10038000303EC8F8186019E059F8041B204604EB09
:1003900087029161E1688847012F064618D1E0691C
:1003A000002820DA25F020051DE0D8F8180000EB21
:1003B000800006EB40003038C8F818002046E1689D
:1003C0008847064605F09FFB0028EED1012F0AD092
:1003D0002E2E08D12046E16888477F1C0646022F52
:1003E00045F02005C4DBA069002803DA404245F04F
:1003F0000105A061E80701D025F01005A6B1A6F11E
:100400004100192802D8203645F400654A46314695
:10041000204625604D46FFF7A3FE60B1012807D0B6
:10042000ED1D25F0070000E007E000F1080978E77E
:1004300005F1040975E730467AE7206ABDE8F09FC8
:100440006A72000010B5431C02E010F8011B71B184
:100450008107FAD14FF0013202C88C1A8C4314EA9A
:10046000C211F9D0C01A0A0603D0C01E10BDC01AAE
:1004700010BD0A0401D0801E10BD0902FCD0401E30
:1004800010BD032A40F2308010F0030C00F01580FC
:1004900011F8013BBCF1020F624498BF11F801CB87
:1004A00000F8013B38BF11F8013BA2F1040298BFEC
:1004B00000F801CB38BF00F8013B11F0030300F056
:1004C000FE82083AC0F0088051F8043B083A51F81F
:1004D00004CBA0E80810F5E7121D5CBF51F8043BFF
:1004E00040F8043BAFF30080D20724BF11F8013B72
:1004F00011F801CB48BF11F8012B24BF00F8013BD4
:1005000000F801CB48BF00F8012B70474FF0000204
:100510000429C0F0128010F0030C00F01B80CCF115
:10052000040CBCF1020F18BF00F8012BA8BF20F883
:10053000022BA1EB0C0100F00DB85FEAC17C24BFD7
:1005400000F8012B00F8012B48BF00F8012B704781
:100550004FF0000200B5134694469646203922BF5C
:10056000A0E80C50A0E80C50B1F12001BFF4F7AFA7
:10057000090728BFA0E80C5048BF0CC05DF804EB89
:10058000890028BF40F8042B08BF704748BF20F8F7
:10059000022B11F0804F18BF00F8012B70477047F5
:1005A000704770472DE9F0470D469946924604463C
:1005B00000F124080168880604D5E06921F01001E3
:1005C000216000E00120A84201DD471B00E0002778
:1005D000A1697A1902EB0900081AA0612078C00607
:1005E00002D42046FFF72EFE002608E0D4E90121C0
:1005F0001AF806009047206A401C761C20624E457F
:10060000F4DB2078C0060AD52046FFF71BFE06E083
:10061000D4E9012130209047206A401C2062381E16
:10062000A7F10107F4DC07E0D4E9012118F805007F
:100630009047206A401C2062281EA5F10105F3DCCA
:100640002046FFF715FE2078000602D50220BDE8FF
:10065000F0870120FBE770472DE9FF4F0C461E464F
:100660004FF0FF378BB0D2E90001DDF860800A90CF
:100670008A46C1F30A5505B93D46002108464FF0A8
:100680000000BAF1000F00F4400005DA00EB800032
:100690004FF4400101EA50004FEA9059B9F1010FBF
:1006A00000DDB9460A9850EA4A000ED044F61050D0
:1006B000A5F2FF3545432F14B8F1000F1ED0754247
:1006C000291E1EDDC9F100021CE0B8F1010F4FF038
:1006D000000001D0302103E0F24305E02154401C2A
:1006E000B042FBDB30460022002121540B99C1F8B7
:1006F0000880C1E900200FB0BDE8F08FBD1B6D1C64
:10070000DEE74A4600DA694206A800F095FA06AB31
:1007100093E8070003AB83E8070050460A9900F00E
:1007200076FB8DE80700A0F500501F380090039875
:10073000002D0ADD42F21F014A460844002303A9A6
:100740000390684600F0DFFD09E0A0F500504A463E
:100750001F38002303A90390684600F0E9FD8DE8E7
:1007600007000004000C03D04FF0FF30410800E008
:100770001046B8F1000F03D00022009215461EE08B
:10078000751E05D400F0D2F9303262556D1EF9D5D0
:10079000B3460122084302D000227F1C04E02078E7
:1007A000302801D100227F1E002A099784D01DE045
:1007B000112D07DA00F0BAF9303262556D1C50EA9B
:1007C0000102F5D1084302D00098C8B10EE0002123
:1007D000681E05E0235C625C63542254401E491C81
:1007E0008142F7DBAB46A81B401E0990002004F8AD
:1007F0000B000B98099AC0F80880C0E9002B7AE733
:1008000011264FF0000857E72DE9F04F88460446BF
:10081000D21D22F0070191B0D1E90001CDE90A0112
:1008200005F04DF902460B98C00F01D02D2007E0CE
:100830002068810701D52B2002E0202101EAC000B9
:10084000032A099001D0072A05DB034641462046CA
:1008500000F0B2F90BE12078800601D5E06900E0F4
:100860000620B8F1650F814606D0B8F1660F18D0A2
:10087000B8F1670F70D131E00020B9F1110F00908D
:1008800001DB112301E009F101030AAA01A90CA867
:10089000FFF7E2FEDDE90C70002609F10105834651
:1008A00047E001204B4600904FF000470AAA01A9FB
:1008B0000CA8FFF7D1FEDDE90DB00C995D460026CE
:1008C00010B909F101000D18B9EB050003D4C0F10E
:1008D000FF3609F10105A5EB09002BE0B9F1010F85
:1008E00001DA4FF001090020B9F1110F00904846DC
:1008F00001DD112300E003460AAA01A90CA8FFF7B5
:10090000ABFEDDE90C704D460026834620780007DB
:100910000AD4AB4500DA5D4601A8012D04DD41197A
:1009200011F8011C302907D04F4502DA17F1040FE6
:1009300004DA012082460FE06D1EEEE7002F02DC94
:10094000ED1B3E4403E0781CA84200DD7D1CB81B73
:1009500000F1010A4FF000472078000703D4AA45B0
:1009600001DB4FF0FF3A0021B7F1004F0DF14308D2
:100970008DF8431024D002202B23002F01DA7F4270
:100980002D230A21021EA0F1010000DC5FB197FBBC
:10099000F1FC97FBF1F201FB1C7C17460CF1300CCB
:1009A00008F801CDEEE7A8F10100037021880905E0
:1009B00001D5452100E06521A0F1010800F8011CE6
:1009C00009980FA9A1EB0807FF1D00B101204119EB
:1009D00001EBEA70A1693844081A401EA061207832
:1009E000C00602D42046FFF72DFC099828B1D4E9AF
:1009F00001219047206A401C20622078C00622D541
:100A00002046FFF71FFC1EE0002E04DBB34502DD8D
:100A100001A8805D00E03020D4E901219047206AE0
:100A2000401C2062761CAAF101005FEA000A0AD18C
:100A300000F078F8C0680168405CD4E90121904773
:100A4000206A401C2062281EA5F10105DCDC07E0BD
:100A5000D4E9012118F8010B9047206A401C20625C
:100A6000381EA7F10107F3DC2046FFF701FC032045
:100A700011B041E601694A1C02610878704700B56F
:100A80008FB0CDE901310021059105497944CDE9C7
:100A9000031011466846FFF739FC0FB000BD000097
:100AA000E5FFFFFF0A6802F8010B0A607047D1E911
:100AB00000239A4202D2531C0B601070704710B58D
:100AC000203AC0F00B80B1E81850203AA0E8185046
:100AD000B1E81850A0E81850BFF4F5AF5FEA027C07
:100AE00024BFB1E81850A0E8185044BF18C918C076
:100AF000BDE810405FEA827C24BF51F8043B40F817
:100B0000043B08BF7047D20728BF31F8023B48BFFB
:100B100011F8012B28BF20F8023B48BF00F8012B39
:100B20007047000000487047D407002030B5B0F18E
:100B30000A024FEA900E71F100034EEA817EB0EB9B
:100B40000E0061EB91014FEA101E4EEA017E10EBA0
:100B50000E0041EB11114FEA102E4EEA016E10EB20
:100B60000E0041EB11214FEA104E4EEA014E10EB00
:100B70000E0041EB1141401841F100014FEAD00055
:100B800040EA41704FEAD10110EB80054FEA810441
:100B900044EA907444EB01046D1944EB0404521BC5
:100BA000A3414FF0000348BF0A3200D530BD401CBE
:100BB00041F1000130BD00002DE9F0411F4604461F
:100BC00003260168072A01F4006004DB08B116A5BA
:100BD00005E016A503E008B115A500E015A521F074
:100BE00010002060A069C01EA0610FB1401EA0616E
:100BF0002046FFF727FB4FB1D4E901213846904743
:100C0000206A401C2062C01C206206E0206AFAE7CD
:100C1000D4E9012115F8010B9047761EF8D2204641
:100C2000FFF726FBBDE8F0814E414E006E616E007D
:100C3000494E4600696E66002DE9F047814616462A
:100C40008AB0354878440DC88DE80D0032487844A4
:100C5000801C03AC0DC884E80D0041F69B300844AD
:100C6000372190FBF1F290FBF1F5A5F1800501FB36
:100C700012041B3C02D56442012000E00020DFF892
:100C800098A080460027FA44AAF1BE0A0EE0E007C9
:100C90000AD03246684607EB470101230AEB81017F
:100CA00000F046FB8DE8070064107F1C002CEED19D
:100CB000194F7F44AE3F19E0E80715D007EB041049
:100CC0000DF1180A90E80E008AE80E00C068F042A4
:100CD00001D1981908903246012306A903A800F013
:100CE00027FB03AB83E807006D10641C002DE3D1E4
:100CF0004FF0010332466946B8F1000F03A802D055
:100D000000F001FB01E000F013FBC9E90001C9F8A4
:100D100008200AB0BDE8F087D0690000004870479D
:100D2000B40700207546FFF7F9FFAE460500694697
:100D3000534620F00700854618B020B5FFF742FA69
:100D4000BDE820404FF000064FF000074FF00008CC
:100D50004FF0000B21F00701AC46ACE8C009ACE84D
:100D6000C009ACE8C009ACE8C0098D46704710B5B1
:100D70000446AFF300802046BDE81040FFF70DBAEF
:100D80004FF0013C50F8042B51F8043B9A4221D11A
:100D9000A2EB0C03934313EACC1317D150F8042BA6
:100DA00051F8043B9A4215D1A2EB0C03934313EA8A
:100DB000CC130BD150F8042B51F8043B9A4209D1C3
:100DC000A2EB0C03934313EACC13DBD04FF00000EB
:100DD000704700BFD01A01BAB1FA81F101F01801D1
:100DE00022FA01F0CB40C1F12001DBB2C0B2C01A3F
:100DF0002CFA01F3D11A914311EAC311E6D17047DD
:100E000001491820ABBEFEE72600020070475FEAEA
:100E1000400C08BF91F0000F4FEA8C234FEAC1222B
:100E200043EA51514FEA1C5018BF00F5F0404FEA19
:100E3000300018BF41F000415FEA6C5C00F029808F
:100E4000BCF1FF3F08BF40F080407047130C06BF65
:100E500012044FF0100C4FF0000C130E04BF1202DE
:100E60000CF1080C130F04BF12010CF1040C930FCA
:100E700004BF92000CF1020CD30F04BF52000CF11E
:100E8000010C11464FF00002A0F11F00A0EB0C0076
:100E9000704711F0004F08BF704731F000413FF438
:100EA000D5AF0B0C06BF09044FF0100C4FF0000C2F
:100EB0000B0E04BF09020CF1080C0B0F04BF090153
:100EC0000CF1040C8B0F04BF89000CF1020CCB0F4A
:100ED00004BF49000CF1010CCCF12003A0EB0C0085
:100EE00022FA03F302FA0CF241EA030100F10100D5
:100EF000704720F07F4C80EA030023F07F47ACEB83
:100F0000070303F57C5300F0004003F1FF032DE9D4
:100F100080494FEA154B09B44FEA144325EA0B4EBA
:100F200024EA03480FF2042606EB132749083E780B
:100F30005FEA320203FB0667C7F5000707FB06F608
:100F40004FEA54374FEAD64606F1020607FB066C15
:100F5000CCF1005C4FEA1C472CEA074C07FB06F477
:100F60000CFB06F504EB15464FEA961634BF00203D
:100F70004FF000404FEAD13706FB07FC4FEA1C4C0C
:100F80000CFB0BF7D21B03FB0CF761EB07010CFB0F
:100F90000EF7B0EB074072EB17420CFB08F734BFBB
:100FA000A2EB0742B2EB074261EB17414FEA0C4458
:100FB0004FEA910706FB07FC4FEA1C4C0CFB0BF7B2
:100FC000B0EBC74072EB573203FB0CF734BFA2EB18
:100FD000C742B2EBC74261EB57310CFB0EF7B0EBE7
:100FE000C70072EB57720CFB08F734BFA2EBC702C5
:100FF000B2EBC70261EB5771039F4FEA816141EA8F
:10100000921104EBCC044FEAD1374FEA826206FB1F
:1010100007FC42EA90124FEA80604FEA1C4C0CFB3E
:101020000BF7D21B03FB0CF761EB07010CFB0EF770
:10103000B0EB074072EB17420CFB08F734BFA2EB92
:101040000742B2EB074261EB17414FEA8C554FEA7A
:10105000910704EB9C2406FB07FC4FEA1C4C0CFB9D
:101060000BF7B0EBC74072EB573203FB0CF734BF02
:10107000A2EBC742B2EBC74261EB57310CFB0EF754
:10108000B0EBC70072EB57720CFB08F734BFA2EB52
:10109000C702B2EBC70261EB577115EB4C254FEA63
:1010A000816141EA92114FEA82624FEAD13742EA06
:1010B000901206FB07FC44F100044FEA80604FEAFF
:1010C0001C4C0CFB0BF7D21B03FB0CF761EB07016D
:1010D0000CFB0EF7B0EB074072EB17420CFB08F766
:1010E00034BFA2EB0742B2EB074261EB174115EBAD
:1010F0001C154FEA813141EA92414FEA823242EABD
:1011000090424FEA80304FEA0C7644F1000448EAFE
:1011100003434EEA0B484FF0000EB2EB080C71EBA4
:10112000030724BF624639464EEB0E0E4FF0000B0C
:101130000018524149414BEB0B0BB2EB080C71EB21
:1011400003077BF1000B24BF624639464EEB0E0EBF
:101150004FF0000B0018524149414BEB0B0BB2EB27
:10116000080C71EB03077BF1000B24BF6246394684
:101170004EEB0E0E51EA020718BF46F0010616EBC1
:101180000E7655F1000254F1000103D5BDE8890146
:10119000BDE80088BDE88901BDE80048B6195241A4
:1011A00041EB0101A3F10103704780807F7E7D7CCC
:1011B0007B7A7978777676757473727171706F6EE9
:1011C0006E6D6C6C6B6A6A69686867666665646494
:1011D000636362616160605F5F5E5E5D5D5C5C5B1E
:1011E0005B5A5A595958585757565655555554548D
:1011F000535352525251515050504F4F4F4E4E4DEB
:101200004D4D4C4C4C4B4B4B4A4A4A494949484836
:101210004847474747464646454545444444444376
:1012200043434342424242414141002B9C4630D419
:1012300077002BD01CB54FEA370703B44FF01000EE
:101240004FF01001BAF1000F06D0BCF1000FDCBF67
:1012500040F0080040F008014FF000000FBCBDE86E
:1012600010400BF1010BBBF1010F08BF5FEA17073C
:1012700022BF12F1010211F101014FF0004143F1CF
:10128000000300F0004043EA00007047F9D357081C
:10129000D0E746EA064613F1400F4FEA16461FDD37
:1012A00013F1200FDFBF16430A46002120335B42B3
:1012B000BED0C3F1200746EA064602FA07F74FEA16
:1012C000164646EA0706C3F1200722FA03F201FA9E
:1012D00007F721FA03F14FF0000342EA0702A7E7FC
:1012E00046EA020646EA06464FEA164646EA01067E
:1012F000BCBF46EA0646360C4FF000034FF0000232
:101300004FF0000194E72DE9804C9A46934670B463
:1013100091E8380007C831EA400C48BF34EA430C72
:1013200003D5FFF7E6FDFFF780FFF0BCBDE8008CBA
:101330002DE9804C9A46934670B491E8380007C86E
:1013400010F0804F08BF13F0804F03D100F005F874
:10135000FFF76BFFF0BCBDE8008C20F07F4780EA10
:10136000030023F07F4C07EB0C03A3F57C5300F044
:101370000040A3F1FE0392F0000F00F0B38095F05F
:10138000000F00F077802DE901494FEA11404FEA44
:10139000144621EA004800FB06FC24EA064708FB45
:1013A00006F607FB08F800FB07F718EB06484CEBBE
:1013B000164C4FEA124B18EB07484FEA15464CEB18
:1013C000174022EA0B4E0BFB06FC25EA06470EFBF4
:1013D00006F607FB0EFE0BFB07F71EEB064E4CEB6B
:1013E000164C4FF000061EEB074E4CEB174B18EB5C
:1013F0000B0840F1000018EB0E0B58EB000840F111
:1014000000008F1A4FF000013CBFC943661B14BF98
:10141000B5EB040C00213CBFC943F61B4FEA17444F
:101420004EEA8E0E27EA04454FEA1C4704FB07628A
:101430002CEA074C05FB07F70CFB05F604FB0CFC3C
:1014400016EB074642EB174216EB0C4642EB1C42EA
:101450001BEB060658EB0202414146EA9E0601D507
:10146000BDE80189B619524141EB0101A3F1010325
:10147000BDE801894FEA14454FEA114724EA0546C1
:1014800021EA074C05FB07F406FB07F70CFB06F106
:1014900005FB0CFC11EB074144EB17444FEA1247E4
:1014A00011EB0C4144EB1C4422EA074C05FB07F20C
:1014B00006FB07F70CFB06F605FB0CFC16EB0746D4
:1014C00042EB174216EB0C4642EB1C456A1854F1EE
:1014D000000148BF7047B619524141EB0101A3F129
:1014E0000103704795F0000F37D04FEA11424FEAE1
:1014F000144721EA024624EA074C02FB07F106FBE7
:1015000007F70CFB06F402FB0CFC14EB074441EB61
:1015100017414FEA154714EB0C4441EB1C4125EAF7
:10152000074C02FB07F506FB07F70CFB06F602FB70
:101530000CFC16EB074645EB174516EB0C4645EB46
:101540001C42121951F1000148BF7047B6195241AF
:1015500041EB0101A3F1010370474FEA14454FEA43
:10156000114724EA054621EA074C05FB07F106FB73
:1015700007F70CFB06F24FF0000605FB0CFC12EB24
:10158000074241EB174112EB0C4251EB1C4148BFA3
:101590007047921841EB0101A3F10103704700006D
:1015A00070B5044600688168C943C90717D18168CE
:1015B00021F00101816001F05DF905460AE000BFFC
:1015C00001F058F9401B022804D920688068C04304
:1015D000C00706D020688068C043C007F0D0002054
:1015E00070BDA06A40F01000A062E06A40F0010007
:1015F000E062012070BD10B50146406A826A12F0B7
:10160000500F05D0006A026BBDE810400846104735
:10161000816A41F40071816201688968C1F34241C5
:1016200007290CD1017B51B9816A21F48071816253
:10163000816AC90403D4816A41F00101816200F02A
:1016400025FD10BD10B5406A816A41F040018162FC
:10165000C16A41F00401C16200F01AFD10BD10B56D
:10166000406A00F014FD10BDF8B50026044600964F
:1016700000688168C943C9072DD0816841F0010124
:101680008160164816490068B0FBF1F000E0401E8A
:1016900000900028FBD101F0EDF8054616E000BFF0
:1016A00001F0E8F8401B022810D920688068C04388
:1016B000C0070BD0A06A40F01000A062E06A40F0C2
:1016C0000100E06284F824600120F8BD2068806891
:1016D000C043C007E4D10020F8BD00003C0000205A
:1016E00040420F0030B58FB0040012D0364D217843
:1016F0006878082966D2DFE801F065040E4A343FB5
:10170000182E08B131A05AE035A000F0C7F900F05A
:1017100059FA0FB030BD012801D033A04FE037A0F7
:1017200000F0BCF900F03CFAF3E70DA803F0DAFD95
:101730009DF8360001ACAB782A78697884E80F0010
:101740009DF8350000909DF834302FA2202105A887
:10175000FEF75EFD0EE036A000F0A0F903F04AF8B7
:10176000D7E76078172801D933A028E0287163787B
:1017700036A207E005A822E060781728F4D868713F
:10178000637835A2202105A8FEF742FDF2E76078D4
:10179000A178E278172803D83B2901D83B2A01D940
:1017A00030A00CE003F0C4FDE178A078CDE90001A1
:1017B000637831A2202105A8FEF72AFDDAE700F0C0
:1017C0006DF9A6E731A0FAE7200000204552523A11
:1017D000414C52454144595F4F50454E0000000076
:1017E0004F4B3A4F50454E004552523A414C5245AC
:1017F0004144595F434C4F53454400004F4B3A43DB
:101800004C4F53450000000054494D2530326425AB
:101810003032642530326420435552533A256420D7
:101820004D4F44453A2564204C55583A25640000F4
:101830004F4B3A4D4F4445004552523A494E56415E
:101840004C49445F484F5552000000004F4B3A54FA
:101850004F253032640000004F4B3A54432530325C
:10186000640000004552523A494E56414C49445F8B
:1018700054494D45000000004F4B3A545325303237
:101880006425303264253032640000004552523AFB
:10189000554E4B4E4F574E000E4808B50068016834
:1018A000C90615D50168406800900A4801F084FF18
:1018B000094800684068C0F14001084801700121F2
:1018C0004170BDE8084040220549024802F0D0B905
:1018D00008BD0000F8010020880200204000002020
:1018E000D80200200A4910B5002008704870402135
:1018F0000848FEF70BFE08480068C16841F0100177
:10190000C160BDE8104040220249034802F0B0B96E
:1019100040000020D8020020F801002010B5022964
:1019200001D2002010BD002208E0835CA3F1610415
:10193000192C01D8203B8354521CD2B28A42F4D3D2
:10194000012010BDF0B514460E460546022941D3CC
:10195000FFF7E4FF00283ED0002020706071C4F83B
:101960000100297803224D2920D004DC43290DD021
:1019700047292FD114E001234F2902D0542929D11E
:1019800019E06878502825D123705CE068784C28ED
:1019900002D0532802D01DE0022005E0227052E060
:1019A0006878532816D1062020704CE068784F28BC
:1019B00010D10720F8E7042E0CD36E786FF02F01BA
:1019C0004F2E04D0432E0AD0532E16D002E004220C
:1019D00006E020700020F0BD6170637133E00522E5
:1019E0002270AA78EE78303A02EB820201EB4201D3
:1019F0003144C9B21729EFD9EBE72270AB78EE7802
:101A0000303B03EB830301EB43033344DEB22B791A
:101A10006F79303B03EB830301EB43033B44EF79E6
:101A2000AD79DBB2303D05EB850501EB450139446D
:101A3000C9B2172ECDD83B2BCBD83B29C9D866705D
:101A4000A370E17062710120F0BD00007CB5114C03
:101A5000607800281DD00025657022780E4901F1BC
:101A60004000FEF70EFD0C48217840306A46455490
:101A70002178FFF767FF38B19DF80300009960F304
:101A80001F61022000F0FEF940210348FEF73EFDF1
:101A900025707CBD40000020D802002010B5040055
:101AA0000FD0FEF7CFFC82B264232146054802F036
:101AB000EFF86423BDE81040022203A1014802F0C0
:101AC000E7B810BDF80100200D0A0000054800210C
:101AD0000A4601704170416001724FF400510248A2
:101AE00000F0C3BECC0200200010014070B5174CBE
:101AF000207A002818D000F0BDFE054660682278E4
:101B0000281A134B4FF40051012A0ED0022A0BD190
:101B1000C82809D30122184600F0A7FE6078401CAF
:101B2000607001206560207070BDC828FCD3002261
:101B3000184600F09AFE65606078032803D3BDE87C
:101B4000704000F01BB80220EDE70000CC0200203E
:101B50000010014010B5074C012020722070607009
:101B600000F088FE60600122BDE810405103024889
:101B700000F07BBECC02002000100140054800218F
:101B80000A460172017041704FF40051024800F0A2
:101B90006CBE0000CC02002000100140FEE70000F7
:101BA000074910B5042008702031022048704FF416
:101BB000B47102F085FEBDE81040032002F0A2BB24
:101BC00000000020074910B503200870203148703C
:101BD0004FF4B471012002F073FEBDE81040022002
:101BE00002F090BB0000002010B501F0FFF90F4992
:101BF000B0FBF1F00E4908600E48016841F08071B9
:101C000001600D4800214160016841F0010101605F
:101C100000F016F80122D102084800F026FEBDE8C7
:101C200010404FF47A7000F011BD000040420F00E8
:101C300044000020FCED00E0001000E0000801403E
:101C40001FB5002002904FF4006000900120019029
:101C5000032003906946024800F00AFD1FBD000002
:101C6000000801402DE9F34F87B0FFF7E9FF564C1C
:101C70004FF4006500222946204600F0F6FD1420AE
:101C800000F0E4FC01222946204600F0EEFD1E2073
:101C900003F040FF00224FF0010BCDE90252CDE9E5
:101CA00004B202A9204600F0E3FC2946204600F0D9
:101CB000CFFD00287ED1002642F2107702E0761C8C
:101CC000BE427ED82946204600F0C2FD0028F6D04C
:101CD0000026B84602E0761C464572D829462746BB
:101CE000204600F0B5FD0128F5D00024AA46B946EB
:101CF00000263546002704E07F1C474501D9002611
:101D000023E05146484600F0A3FD0028F4D02820E7
:101D100003F000FF5146484600F09AFD012810D11B
:101D2000C5F107010BFA01F03043C6B2002702E00B
:101D30007F1C474505D85146484600F089FD0128DB
:101D4000F6D06D1CEDB2082DD4D30DF80460641CE0
:101D5000E4B2052CCCD39DF800109DF801009DF84D
:101D600002209DF8033001441A4411449DF80420D8
:101D7000914226D104F0CCF8144D294603F0E6FF39
:101D800004469DF8000004F0C3F8214603F07CFFF0
:101D9000089908609DF8030004F0BAF8294603F09A
:101DA000D5FF04469DF8020004F0B2F8214603F086
:101DB0006BFF00E005E007990860002009B0BDE86E
:101DC000F08F0120FAE700000008014000002041E8
:101DD000014800F02BBB0000C4000020014800F0C7
:101DE00025BB00008802002030B590F84050012447
:101DF000AC40C56B6C60046863604368102B03687B
:101E000003D099600068C26030BD9A600068C1600C
:101E100030BD7047034907200870032020318871C6
:101E2000704700000000002072B6FEE7F0B50F49D1
:101E3000002306468D6863F3070295B10C480C68D1
:101E400010F8343000EBC40063F3070243680A2043
:101E5000641CB4FBF0F700FB17406D1E8D6008603A
:101E600001E000F007F8C6E90023F0BD880000207B
:101E700064070020024800210160416081607047D2
:101E80008800002030B50A4A94680A2C0FD2094D08
:101E9000536805F8330005EBC3005B1C41600A2062
:101EA000B3FBF0F100FB1130641CC2E9010430BD4A
:101EB0008800002064070020F8B50025044600953E
:101EC00090F8240001280BD0012084F8240020463B
:101ED000FFF766FB2046FFF7C7FB060002D050E085
:101EE0000220F8BDA06A20F4885040F00200A062F1
:101EF000022000F01DFF25490968B1FBF0F0400009
:101F000000E0401E00900028FBD12068816841F06D
:101F10000801816000F0AEFC074608E000F0AAFC72
:101F2000C01B0A2803D920688068000715D42068E0
:101F300080680007F2D42068816841F00401816064
:101F400000F098FC074612E000F094FCC01B0A2841
:101F50000DD920688068400709D5A06A20F00200EA
:101F600040F01000A06284F824500120F8BD2068E1
:101F700080684007E8D4A06A20F0020040F0010029
:101F8000A06284F824503046F8BD00003C000020D8
:101F9000F8B50024009490F824202546012A12D098
:101FA000012280F824204A681F23072A0DD20668E0
:101FB000776B521E02EB820293409F430B68934063
:101FC0001F43776319E00220F8BD06680D2A0AD284
:101FD000376BD21F02EB820293409F430B68934002
:101FE0001F43376309E0F76A0D3A02EB8202934020
:101FF0009F430B6893401F43F7620A6807230668F4
:102000000A2A0AD3F7680A3A02EB420293409F4336
:102010008B6893401F43F76008E0376902EB420288
:1020200093409F438B6893401F4337610A68102A8F
:1020300001D0112A20D1124B02689A4217D193681D
:102040001B0219D4936843F40003936009681029B4
:1020500012D10C490C4A0968B1FBF2F101EB810184
:10206000490000E0491E00910029FBD104E0816A8B
:1020700041F020018162012480F824502046F8BDFF
:10208000002401403C00002040420F007047704790
:10209000704700002DE9F0414FF0000704003D4675
:1020A0007ED0A06A002628B9E66284F82460204623
:1020B00000F07EF82046FFF773FAA16AC90600D443
:1020C00020B1A06A40F01000A06269E0A16A21F48A
:1020D000885141F00201A1626268E169237B0A43F1
:1020E00047EA43010A43A1684FF48077B94209D017
:1020F000012907D05FF0000194F814C0BCF1010F72
:1021000002D00AE03946F7E7F3B1A36A43F02003AF
:10211000A362E36A43F00103E3622368D3F804C0D7
:102120002CF4694C4CEA010CC3F804C021688B689C
:10213000DFF870C003EA0C0313438B60A168B94257
:102140000BD0012909D00CE0DFF85CC0A3690CEBCF
:1021500043330B4343F40061DFE7218A0D05A5F506
:1021600080152168CB6A23F470032B43CB6221686E
:1021700089680E4B1940914208D1E662A16A21F0AC
:10218000020141F00101A162BDE8F081A06A20F0E6
:10219000020040F01000A062E06A40F00100E0623E
:1021A0000120F1E7FDF7E1FF00E0FFFFFE0E1FFF5A
:1021B00070B586B0002506460095019502950395F9
:1021C00000681A4988422ED11949886940F4007084
:1021D0008861886900F400700490886940F0040008
:1021E00088618869694600F004000490012000902D
:1021F000032001900F4800F03BFA104C0E48C4E950
:1022000000058020C4E90250400020618000606128
:102210002020C4E90605204600F0B2F908B1FFF716
:1022200003FE3462666206B070BD00000024014007
:10223000001002400008014008000240C4000020D5
:102240002DE9F047894604463B4900683B4F0E1D87
:102250009046884201D0B84207D1306810F4702F00
:1022600003D001252846BDE8F08794F82400012812
:102270000CD0012084F824002046FFF7F5F9050072
:102280004FF0000004D084F82400EBE70220EAE7D6
:10229000A16A40F60162914341F48071A162216814
:1022A000B94218D1326812F4702F14D0A16A41F4E7
:1022B0008011A1623168490505D5A16A21F4005158
:1022C00041F48051A162A16AC9040AD5E16A21F0F2
:1022D0000601E16206E0A26A22F48012A262496865
:1022E000E9E7E06284F82400216A15488862216ADF
:1022F0001448C862216A1448086321686FF002001C
:1023000008602068816841F48071816021684346DB
:102310004A464C31206A00F061F920688168C1F3B7
:1023200042410729816803D041F48011816099E717
:1023300041F4A001FAE70000002401400028014018
:10234000F71500085F1600084516000810B590F84C
:1023500021100022022905D00421816380F8202069
:10236000012010BD01680B6823F00E030B600168AB
:102370000B6823F001030B6090F84030C46B01211F
:1023800001FA03F3636080F8211080F820201046E2
:1023900010BD000010B590F821100024022903D0D0
:1023A0000421816301243DE001680A6822F00E02E5
:1023B0000A6001680A6822F001020A601A4A01688C
:1023C000914201D1012121E0174A1432914201D1F9
:1023D00010211BE0144A2832914201D1891515E0E1
:1023E000114A3C32914201D189140FE00E4A503219
:1023F000914202D14FF4803108E00B4A643291429D
:1024000002D14FF4801101E04FF08071064A083A82
:102410005160012180F82110002180F82010416BCB
:1024200001B18847204610BD080002402DE9F05F49
:10243000C16B0C6801680B68D0F840C0042202FA36
:102440000CF2494DDFF824A1494E4A4FDFF828B17C
:10245000DFF828E122422CD05A072AD50A689206D2
:1024600003D40A6822F004020A600168A94201D17B
:10247000042219E0514501D1402215E0B14202D1B8
:102480004FF4806210E0B94202D14FF480420BE079
:10249000594502D14FF4802206E0714502D14FF434
:1024A000800201E04FF080622F4908394A60C16A1A
:1024B0003BE04FF0020808FA0CF818EA040F4FF05E
:1024C00000094FF0010235D05FEA837832D50B68FE
:1024D0009B0605D40B6823F00A030B6080F82120CB
:1024E0000168A94201D1022219E0514501D12022FF
:1024F00015E0B14202D14FF4007210E0B94202D1AE
:102500004FF400520BE0594502D14FF4003206E07F
:10251000714502D14FF4001201E04FF000721249F0
:1025200008394A6080F82090816A00291AD0BDE8F5
:10253000F05F0847082505FA0CF5254212D01B0765
:1025400010D50B6823F00E030B6090F84010C36B9E
:1025500002FA01F15960826380F8212080F820900E
:10256000016BE2E7BDE8F09F080002401C0002405A
:102570003000024044000240580002406C0002401B
:1025800030B528B308C8134914221944B1FBF2F13D
:102590008900C16310498163022141771A6843F6BB
:1025A000F0718A43D0E900142143D0E902452C435D
:1025B0002143046921434469214384692143114330
:1025C000196000214163012242770177084630BD3E
:1025D000012030BDF8FFFDBF0000024070B5044689
:1025E00090F82000002501280CD0012084F820005C
:1025F00094F821600020012E06D084F820000225E6
:10260000284670BD022070BD022684F82160A063B8
:102610002068066826F0010606602046FFF7E4FB06
:10262000E06A00282068016802D041F00E0106E04F
:1026300021F0040101602068016841F00A01016095
:102640002068016841F001010160D9E770B50446D6
:1026500000F010F90546601C02D0044800780444DC
:1026600000F008F9401BA042FAD370BD30000020F2
:102670002DE9F84FDFF8B8910024A9F1040B2346A7
:102680000F2709F1040AABF1040EC9E00125A540AA
:102690002A40AA427DD1674ED1F804C0ACEB0608AF
:1026A000B44532D014DCBCF1030F3AD009DCBCF1E4
:1026B000000F2AD0BCF1010F1CD0BCF1020F31D1A8
:1026C0001DE0BCF1110F17D0BCF1120F2AD119E097
:1026D000B8F5881F19D006DCB8F5803F15D0B8F5DD
:1026E000801F1FD111E0B8F5001F0ED0B8F5041FF0
:1026F00018D10AE0CB6815E0CB681B1D12E0CB684F
:1027000008330FE0CB680C330CE08B682BB1012B46
:102710004FF0080303D0456104E0042302E00561A3
:1027200000E00023FF2A01D8064601E000F104067C
:102730004FEA840501D9A5F12005D6F8008007FAF3
:1027400005FC28EA0C0803FA05F548EA0508C6F86E
:1027500000804D68ED0062D5374DAE6946F0010648
:10276000AE61AD6924F0030605F001050095334D17
:1027700006EB050CDCF80850A607360F07FA06F83A
:1027800025EA0805DFF8B880404503D14FF000087E
:1027900017E044E0DFF8AC80404502D14FF001087B
:1027A0000FE0DFF8A480404502D14FF0020808E0B6
:1027B000DFF89880404502D14FF0030801E04FF068
:1027C000040808FA06F848EA0508CCF808804D68BD
:1027D000D9F80060ED024D4601D5164300E096435E
:1027E0002E604D68DAF80060AD02554601D51643FB
:1027F00000E096432E604D68DBF80060AD035D4657
:1028000001D5164300E096432E604D68DEF8006067
:10281000ED03754601D5164300E096432E60641C17
:102820000D682A46E5407FF431AFBDE8F88F00001F
:102830000804014000001110001002400000014097
:1028400000080140000C014000100140001401404C
:102850008068084000D001207047C26821EA020366
:102860000A4043EA0241016170470AB101617047C1
:102870000904FBE701488068704700003000002031
:1028800070B5040025D094F83D00002520B984F8E7
:102890003C50204600F050F9242084F83D00206888
:1028A000016821F0010101602068016841F40041E4
:1028B00001602068016821F40041016000F09CFB88
:1028C0004D4A6168914201D84C4900E04C49884228
:1028D00001D2012070BD4B492368B0FBF1F15E6865
:1028E00026F03F060E435E606368934206D94FF4BC
:1028F000967359434FF47A73B1FBF3F12368491C83
:102900001E6A26F03F06314319626168914210D871
:102910004900401EB0FBF1F2521CC2F30B02042A24
:1029200001D2042022E0B0FBF1F0401CC0F30B0008
:102930001CE0A268F2B301EBC10303EB0116431ED6
:10294000B3FBF6F35B1C43F480431B0549D092B301
:1029500001EBC10202EB0111401EB0FBF1F0401C83
:10296000C0F30B0040F4804040F400402168CA6985
:102970004CF6FF739A431043C861D4E90710014332
:102980002068026822F0C00211430160D4E903010B
:1029900001432068826848F2FF339A431143816003
:1029A000D4E9050108432168CA6822F0FF021043F8
:1029B000C86001E00EE016E02068016841F0010106
:1029C00001602564202084F83D00256384F83E5092
:1029D000002070BD01EB4106431EB3FBF6F35B1C08
:1029E000B3E70120C2E701EB4101401EB0FBF1F06B
:1029F000401CC0F30B00B7E7A086010080841E00D6
:102A000000093D0040420F002DE9FF4F83B09A4678
:102A1000DDE9119793460446DDF84080FFF72AFF71
:102A2000054694F83D0020287FD119230122404912
:102A30002046009501F092FB002876D194F83C00E6
:102A4000012872D0012084F83C0020680168C90781
:102A500003D1016841F0010101602068016821F49F
:102A600000610160212084F83D00402084F83E0090
:102A700000262664C4F82480A4F82A90608D20855E
:102A80002C48E062CDE9007553465A462046049929
:102A900001F0E4FA70B930E02A463946204601F0E8
:102AA00003FC58B1206C042804D12068016841F46B
:102AB00000710160012007B0BDE8F08F606A2168F5
:102AC00000780861606A401C6062218D491E89B2ED
:102AD0002185628D521E628522685369DB435B0744
:102AE0000BD469B100781061606A401C6062208D6F
:102AF000401E2085608D401E6085208D0028CBD132
:102B00002A463946204601F0FDFA0028CAD154F879
:102B10003D0B016841F400710160202004F81E099A
:102B2000E67766770020C6E7FFE70220C3E70000EC
:102B3000020010000000FFFF10B586B000210091D8
:102B400001910291039100680F4988421AD10F4CFC
:102B5000A06940F00800A061A069694600F0080083
:102B60000490C02000901220019003200390084898
:102B7000FFF77EFDE06940F40010E061E06900F4D9
:102B80000010049006B010BD005400400010024038
:102B9000000C014070B5040013D021684CF6CC4005
:102BA0000860216845F255500860D4E90001416091
:102BB0002168A0688860FFF75DFE054641F23C365B
:102BC0000DE0012070BD00BFFFF754FE401BB04276
:102BD00005D92068C068800701D0032070BD206837
:102BE000C0688007F0D121684AF6AA20086000205A
:102BF00070BD00684AF6AA210160002070470000FD
:102C000002488168027811448160704730000020DA
:102C1000074810B5016841F010010160032000F081
:102C200075F80F2000F006F800F024F8002010BD21
:102C30000020024070B50D4D04464FF47A7128789B
:102C4000B1FBF0F00A490968B1FBF0F000F0AAFB13
:102C500048B9102C07D200222146501E00F036F849
:102C600000206C6070BD012070BD000030000020AD
:102C70003C0000200C4808B5816941F001018161E8
:102C8000816901F001010091C16941F08051C16188
:102C9000C06900F0805000900448416821F0E06174
:102CA00041F00071416008BD001002400000014089
:102CB000002809DB00F01F0201219140400980003B
:102CC00000F1E020C0F8001170470000F0B40E4B96
:102CD0001B680C46C3F30223C3F10705042D00D97A
:102CE0000425191D072901D2002300E0DB1E01265F
:102CF00006FA05F1491E214099409E40761E164075
:102D00003143F0BC02F0EFBE0CED00E0064900F0EC
:102D1000070208684FF6FF03184040EA0220034A02
:102D200010430860704700000CED00E00000FA0559
:102D300010B501460020234C012922D0022939D0A8
:102D400010291DD161682268D20119D51E48C1F32E
:102D50008342C903805C0AD561681B4AC1F34041C4
:102D6000921E515C194AB2FBF1F1484301E0184947
:102D700048436168490203D440000321B0FBF1F0ED
:102D800010BD226AC2F30121012903D1920701D5A6
:102D9000C80310BD022905D1626A920702D549F61F
:102DA000404010BD0329FCD121688903F9D54FF2B9
:102DB000244010BD00F030F96168C1F38131491C35
:102DC0004900DBE700100240CE60000800127A00E4
:102DD00000093D002DE9F84305460078354CC00751
:102DE00054D0E0690026C00008D4E06940F080506B
:102DF000E061E069012600F0805000902E480168F3
:102E0000C90512D40168804641F480710160FFF762
:102E100031FD074605E000BFFFF72CFDC01B64280D
:102E200023D8D8F80000C005F6D5206A10F4407009
:102E300021D0A98801F4407181421CD0206A1F4929
:102E4000012220F440700A6000220A602062C0075C
:102E500011D0FFF70FFD074641F2883808E000BFA8
:102E6000FFF708FDC11B414502D90320BDE8F883E7
:102E7000206A8007F4D5206A696820F4407008430E
:102E800020621EB1E06920F08050E0612878800760
:102E900005D56068A96820F4404008436060287840
:102EA000C00605D56068E96820F4800008436060CA
:102EB0000020DBE700100240007000404004424266
:102EC0002DE9F0470F46050061D0434E306800F011
:102ED0000700B84209D2306820F00700384330605C
:102EE000306800F00700B84251D128683B4C810798
:102EF00012D5400703D5606840F4E0606060287830
:102F0000000703D5606840F4605060606068A9689D
:102F100020F0F000084360602878C00728D0686877
:102F2000012810D02168022810D0890700292EDA44
:102F3000616821F0030101436160FFF79BFC80465B
:102F400041F288390DE021688903EFE78901EDE757
:102F5000FFF790FCA0EB0801494502D90320BDE82A
:102F6000F0876068696800F00C00B0EB810FEFD16A
:102F7000306800F00700B8420BD9306820F0070035
:102F800038433060306800F00700B84201D00120BB
:102F9000E5E72878400705D56068E96820F4E06037
:102FA000084360602878000706D56068296920F426
:102FB000605040EAC100606000F03EF86168084A75
:102FC000C1F30311515CC840064908600648006817
:102FD000FFF730FE0020C2E7002002400010024050
:102FE000DE6000083C00002034000020014800683A
:102FF000704700003C00002004480549006849680B
:10300000044AC1F30221515CC84070473C000020D3
:1030100000100240EE600008044805490068496855
:10302000044AC1F3C221515CC84070473C000020F3
:1030300000100240EE6000080E4A51680E4801F090
:103040000C03042B11D0082B0FD10C48C1F3834380
:10305000C903C05C0AD55168084AC1F34041921EB9
:10306000515C054A5043B0FBF1F0704704494843B6
:10307000704700000010024000127A00BC60000897
:1030800000093D002DE9F84F040070D02078C04DB4
:10309000C00749D06868C0F38100012807D068687C
:1030A000C0F38100022809D16868C00306D52868EA
:1030B000800339D560680028E7D035E06068B0F556
:1030C000803F0BD010B1B0F5A02F11D0286820F4AC
:1030D00080302860286820F4802002E0286840F4CE
:1030E00080302860606890B1FFF7C4FB06460AE0B4
:1030F000286840F480202860F0E700BFFFF7BAFBA3
:10310000801B642873D828688003F7D50CE0FFF78C
:10311000B1FB064605E000BFFFF7ACFB801B64284F
:10312000F0D828688003F7D420789A4E80074FF0B3
:1031300001094FF0000839D5686810F00C0F07D06E
:103140006868C0F38100022809D16868C00306D40A
:103150002868800714D52069012808D110E020696B
:10316000B0B1C6F80090FFF785FB074605E00AE11D
:10317000FFF780FBC01B0228C4D828688007F7D55A
:103180002868616920F0F80040EAC10028600DE07D
:10319000C6F80080FFF76EFB074604E0FFF76AFB06
:1031A000C01B022823D828688007F7D4207800079E
:1031B0002CD57948A169D9B1C0F80090FFF75AFB26
:1031C000074604E0FFF756FBC01B02280FD8686AC9
:1031D0008007F7D571484FF4FA510068B0FBF1F061
:1031E000009000BF0098411E0091FAD20EE080E0EE
:1031F000C0F80080FFF73EFB074604E0FFF73AFB0C
:10320000C01B022875D8686A8007F7D42078400769
:1032100060D5E8690027C00008D4E86940F0805014
:10322000E861E869012700F0805000905C4801687F
:10323000C90513D40168834641F480710160FFF72A
:1032400019FB824606E000BFFFF714FBA0EB0A0063
:1032500064284ED8DBF80000C005F5D5E0680128E9
:103260000AD008B1052813D0286A20F0010028628E
:10327000286A20F0040002E0286A40F00100286279
:10328000E06841F2883B98B1FFF7F4FA82460BE020
:10329000286A40F004002862EEE700BFFFF7EAFA70
:1032A000A0EB0A0159455AD8286A8007F6D50CE0E8
:1032B000FFF7E0FA824605E0FFF7DCFAA0EB0A012F
:1032C00059454CD8286A8007F6D41FB1E86920F028
:1032D0008050E861E06988B36968C1F3810102291F
:1032E00044D00228C6F8608004D0FFF7C3FA044631
:1032F00038E034E0FFF7BEFA074604E0FFF7BAFA19
:10330000C01B02282BD828688001F7D4206AB0F5AA
:10331000803F05D16868A16820F4003008436860E8
:10332000D4E908010843696821F47411084368600E
:10333000C6F86090FFF79EFA044606E025E000BF5D
:10334000FFF798FA001B022809D828688001F7D5F2
:103350001BE000BFFFF78EFA001B022802D90320F2
:10336000BDE8F88F28688001F4D40EE00128F7D07A
:103370006868226A00F48031914204D1616A00F4E5
:103380007010884201D00120EAE70020E8E7000041
:103390000010024000004242800442423C000020F3
:1033A0000070004010B5401EB0F1807F01D30120B5
:1033B00010BD4FF0E02460610F21601702F093FB15
:1033C0000020A06107202061002010BD70477047D9
:1033D00070B590F83C20012A26D0012480F83C40AA
:1033E000022280F83D2003685A689D6822F070062A
:1033F0000A6832435A600D4B02689A4208D0B2F113
:10340000804F05D00A4B9A4202D00A4B9A4204D10F
:10341000496825F080031943916080F83D40002100
:1034200080F83C10084670BD022070BD002C0140A1
:10343000000400400008004010B5040003D094F8D8
:103440003D0010B107E0012010BD002084F83C00D1
:10345000204600F01FF8022084F83D00211D20685E
:1034600002F052F8012084F8460084F83E0084F807
:103470003F0084F8400084F8410084F8420084F85A
:10348000430084F8440084F8450084F83D0000209F
:1034900010BD000008B50068B0F1804F12D10A4895
:1034A000C16941F00101C161C069002200F0010061
:1034B000009011461C20FFF709FCBDE808401C20C5
:1034C000FFF7F6BB08BD00000010024090F83D1069
:1034D000012901D001207047022180F83D100168C8
:1034E000CA6842F00102CA6000680B49884208D0ED
:1034F000B0F1804F05D00949884202D0084988427E
:1035000004D1816801F00701062903D0016841F068
:103510000101016000207047002C014000040040C0
:103520000008004070B5044690F83C0000250128D2
:1035300017D0012684F83C60022084F83D00206802
:10354000826822F0770222F47F4282600868502865
:1035500038D00DDC20284FD005DC90B3102811D1D5
:103560004AE0022070BD302846D040280AD13BE016
:1035700060282FD070280DD0B0F5805F03D0B0F553
:10358000005F12D0012584F83D60002084F83C00E3
:10359000284670BDCB68D1E90121206801F0F0FF19
:1035A0002068816841F0770109E0CB68D1E9012109
:1035B000206801F0E5FF2068816841F48041816066
:1035C000E1E719E0CA684968206801F0EBFF502183
:1035D000206806E0CA684968206801F0F4FF6021AD
:1035E000206801F0D7FFCEE7CA684968206801F07B
:1035F000D9FF40212068F4E7226801461046F0E731
:1036000070472DE9F04104460068C66805694FF02F
:103610000007A90713D5B10711D5F91E01610120D3
:103620002077206880698007204602D0FFF7E8FFF6
:1036300004E000F07EF8204600F07CF82777680769
:1036400016D5700714D521686FF0040008610220B8
:1036500020772068806910F4407F204602D0FFF771
:10366000CFFF04E000F065F8204600F063F827770C
:10367000280715D5300713D521686FF008000861B9
:10368000042020772068C0698007204602D0FFF719
:10369000B7FF04E000F04DF8204600F04BF8277724
:1036A000E80616D5F00614D521686FF01000086101
:1036B000082020772068C06910F4407F204602D09F
:1036C000FFF79EFF04E000F034F8204600F032F8E7
:1036D0002777E80708D0F00706D021686FF00100CF
:1036E0000861204600F028F8280608D5300606D5DF
:1036F00021686FF0800008612046FFF767FE6806CA
:1037000008D5700606D521686FF040000861204694
:1037100000F04EF8A8060AD5B00608D521686FF06B
:10372000200008612046BDE8F041FFF750BEBDE82B
:10373000F08170477047000070B50068B0F1804FAD
:1037400033D101F00DFE194C0025E068401CE0600B
:103750000A2802D3E56000F02BFE20694FF47A7648
:10376000401C2061B04202D3256100F05FFE606919
:10377000401C6061B0F5FA7F02D3656101F08EFDF7
:10378000A0690121401CA061B04201D3A561617014
:10379000E069401CE061322801D3E561A17001F0CD
:1037A0003DF8BDE87040FEF7A1B970BD00000020F3
:1037B000704770477047000070B5044620680C30B1
:1037C00050E8001F21F4907140E80012002AF5D162
:1037D0002068143050E8001F21F0010140E8001279
:1037E000002AF5D1206B012809D120680C3050E85F
:1037F000001F21F0100140E80012002AF5D12068D6
:1038000040694FF0200241064FF0000015D52168B5
:10381000143151E8003F23F0400341E80035002D0A
:10382000F5D1E16B49B109484863E06BFEF7B2FDA1
:1038300050B1E06B416B884706E0E08584F8422098
:1038400020632046FFF7B6FF002070BDE956000850
:1038500070470000F8B5016804460868CA684B69FB
:1038600010F00F0F4FF0000559D003F0010602F4DD
:103870009077374365D0C10705D0D10503D5616C7A
:1038800041F001016164410705D5D90703D0616C9E
:1038900041F002016164810705D5D90703D0616C4D
:1038A00041F004016164010707D502F020013143B2
:1038B00003D0616C41F008016164616C00293AD069
:1038C000800604D5900602D5204601F04DFF206801
:1038D0004069616CC0F38010090700D460B32046D2
:1038E00001F00DFF20684069400621D520681430A2
:1038F00050E8001F21F0400140E80012002AF5D1F5
:10390000E06BA8B16D494163E06BFEF743FD002811
:1039100011D0E06B416B01B0BDE8F0400847830671
:103920000FD593060DD52046BDE8F84001F01CBF29
:103930002046FFF78DFFF8BD2046FFF789FF65643D
:10394000F8BD266B2023012E7CD1C6067AD5D6067B
:1039500078D508684868009048694FF0020640062C
:1039600040D5E16B086840680004000CE8D0A28DE7
:103970008242E5D9E085886920282DD020680C3066
:1039800050E8001F21F4807140E80012002AF5D1B0
:103990002068143050E8001F21F0010140E80012B7
:1039A000002AF5D12068143050E8001F21F04001B2
:1039B00040E80012002AF5D184F8423025632068DF
:1039C0000C3050E8001F21F0100140E80012002ADE
:1039D000F5D1E06BFEF7BAFC6663A08DE18D401A6D
:1039E00081B22AE0A08DE18D401A81B2E08D0028DD
:1039F000A6D00029A4D022680C3252E8000F20F48F
:103A0000907042E80007002FF5D12068143050E88C
:103A1000002F22F0010240E80027002FF5D184F8A2
:103A20004230256320680C3050E8002F22F010024D
:103A300040E80023002BF5D166632046FFF7B9FE6E
:103A4000F8BDFFE705062BD5150629D594F84100EA
:103A50002128F5D1A068B0F5805F01D12069B0B10F
:103A6000206A411C2162216800784860E08C401E79
:103A70000004000CE084E3D12068C16821F08001DB
:103A8000C1602068C16841F04001C160D8E7206A88
:103A90000088C0F308004860206A801C2062E5E7C7
:103AA0004006CDD55006CBD5CA68204622F040024C
:103AB000CA6084F8413000F03BF9C1E7EB550008DB
:103AC00070B5040004D094F84100002510B106E060
:103AD000012070BD84F84050204600F023F82420D7
:103AE00084F841002068C16821F40051C16020467B
:103AF00001F09CFE2068016921F490410161206879
:103B0000416921F02A0141612068C16841F40051F6
:103B1000C1606564202084F8410084F84200656338
:103B2000002070BDF0B585B000240094019402948B
:103B30000394054603684748DFF814C102210322B5
:103B4000454E071563451DD1836943F48043836166
:103B5000836903F480430493836943F0040383611E
:103B60008069039200F0040004900802CDE900018E
:103B700069463046FEF77CFDCDE900746946304663
:103B8000029462E0DFF8D4C063453DD1C36943F4D9
:103B90000033C361C36903F400330493836943F0C2
:103BA000040383618069039200F004000490042000
:103BB000CDE9000169463046FEF75AFD0820CDE9FF
:103BC0000004694630460294FEF752FD254E244813
:103BD000C6E900048020C6E90240346180017461B6
:103BE000C6E906403046FEF7CBFC08B1FEF71CF9EB
:103BF000EE630022114626207562FFF767F8262043
:103C0000FFF756F805B0F0BD174DAB42FAD1C369C6
:103C100043F48023C361C36903F48023049383695D
:103C200043F0080383618069CDE9007100F008006A
:103C3000CDE903200D4D69462846FEF719FDE8142D
:103C4000CDE90004694628460294FEF711FDD9E744
:103C500000380140001002400008014000440040CC
:103C60006C0002408802002000480040000C014027
:103C700090F84230202B01D00220704721B11AB1B8
:103C80000023036301F02EBE012070477047704788
:103C90002DE9F843044690F84100984616460D4633
:103CA000202802D00220BDE8F88385B17EB1002033
:103CB0006064212084F84100FEF7DCFDA684814683
:103CC000E684A0682027B0F5805F02D003E00120E1
:103CD000E9E7206910B12E4600250EE000260CE031
:103CE0008021204601F046FEA8B9C6B116F8010BA6
:103CF00021684860E08C401EE084E08C4B464FF029
:103D00000002CDF800800028EAD14FF040012046A3
:103D100001F030FE40B184F841700320C3E735F86C
:103D2000020BC0F30800E3E784F841700020BAE713
:103D300070470000017805290CD14068002809D19E
:103D40000648002141700278203812B1012A02D0C1
:103D50000221017070470121FBE7000020000020D4
:103D600000B5017801290BD1064A0079117800F0DD
:103D700019FD012804D103492039087000209071F1
:103D800000BD00002000002010B502781449012A6F
:103D900010D0032A22D142680846012A407813D065
:103DA00000228A70012819D102204870BDE8104015
:103DB000FDF7F6BE0978007900F0F4FC01280DD17A
:103DC000BDE8104000F016BD01228A70002805D120
:103DD00003204870BDE81040FDF7F4BE10BD0000A0
:103DE0002000002010B50178012922D1114A007964
:103DF000117800F0D7FC012809D003280BD0052842
:103E000010D0082815D1BDE81040FEF703B8BDE872
:103E1000104000F0EFBC507800280AD1BDE81040F7
:103E2000FDF7D0BE5078012803D1BDE81040FDF762
:103E3000B7BE10BD2000002010B50178174A012937
:103E40000ED006291DD141681046012940781DD0A9
:103E5000012816D102205070BDE81040FDF7A0BE29
:103E60001178007900F09EFC01280BD0072808D1BA
:103E70000A49052020390870094910790870012085
:103E8000907110BDBDE8104000F0B4BC0028F8D11E
:103E900003205070BDE81040FDF794BE20000020C4
:103EA00071000020017805290CD14068002809D153
:103EB0000648012141700278203822B1012A00D041
:103EC0000221017070470021FBE700002000002064
:103ED00000B50178012913D1114A0079117800F059
:103EE00061FC00230F4902280BD0042810D00728BA
:103EF00006D1087850710A49012020390870937161
:103F000000BD0878172801D2401C06E00B7000BDE8
:103F1000087808B1401E00E01720087000BD0000BE
:103F2000200000207100002000B50178012915D182
:103F3000124A0079117800F035FC114902280ED0A0
:103F4000042813D0072809D10C4B08781071203BA6
:103F500006201870507908700220907100BD087812
:103F6000172801D2401C06E0002004E0087808B1C0
:103F7000401E00E01720087000BD00002000002057
:103F80007100002070B50178012923D1264D0079F8
:103F9000297800F007FC0026A5F11D0403281AD09B
:103FA00005282BD0082815D1A879032838D0042853
:103FB00010D161782078002201F0BAF9E11E0220C8
:103FC0000870AE71881D01F08DF9E01C0178217038
:103FD0004078607070BDA879032806D00428F9D114
:103FE00060783B2808D2401CF3E72078172801D2DC
:103FF000401C11E0267070BD667070BDA879032862
:1040000005D00428F9D1607840B1401EE1E720785E
:1040100008B1401E00E01720207070BD3B20D8E79B
:104020000420A87170BD000020000020FEE7016898
:104030004A69D24352050FD46FF480624A6100216D
:1040400040F8301F202242738173026942F004025B
:104050000261017301207047002070472DE9F84389
:10406000044600680D46DDE9089701689846164643
:1040700041F4807101604B4600224FF0011120464F
:10408000009700F06BF848B120680068C00502D5C1
:104090004FF4007020640320BDE8F883216805F028
:1040A000FE0008613B464A461549204600F09EF84E
:1040B00088B920684169806900903A46494620469F
:1040C00000F0F2F848B1206C042804D1206801689F
:1040D00041F4007101600120DEE7F5B2B8F1010F93
:1040E00009D02168300A08613A464946204600F066
:1040F000DBF80028E7D1206805610020CCE700004C
:104100000200010070B516460D4604461EE020462A
:10411000FFF78DFF08B1012070BD681C16D0FEF7B7
:10412000A9FB801BA84200D885B920684069C0431C
:1041300040070BD5002044F8300F20216173A07395
:10414000216941F0200121612073E4E72068406982
:10415000C0434007DBD4002070BD00002DE9F047CC
:10416000984617460D460446C1F30746DDF82090F1
:104170002AE000BFB8F1FF3F26D0FEF77BFBA0EBA3
:104180000901414502D8B8F1000F1DD12068012E68
:1041900016D0806925EA00000004000C12D000202F
:1041A000B84211D1002044F8300F20216173A07370
:1041B000216941F02001216120730120BDE8F087D1
:1041C0004069E7E70120EBE72068012E0AD080690B
:1041D00025EA00000004000C06D00020B842C9D037
:1041E0000020EBE74069F3E70120F7E72DE9F0470E
:1041F000984616460D4604464FF000094FF0200A37
:10420000C1F3074723E020684069C043400515D447
:104210002068016841F40071016021686FF48060DA
:104220004861C4F8309084F83DA084F83E90216C39
:1042300041F00401216484F83C9021E0701C06D018
:10424000FEF718FBA0EB0800B04203D816B1012F0F
:104250001FD021E02068012F15D0806925EA0000D9
:104260000004000C18D000BF44F8309F84F80DA063
:1042700084F80E90216941F02001216184F80C90AE
:104280000120BDE8F087406925EA00000004000C29
:10429000EAD12068406901E02068806925EA0000D1
:1042A0000004000CAFD1ECE770B516460D4604468D
:1042B0001EE02046FFF7BBFE08B1012070BD681C60
:1042C00016D0FEF7D7FA801BA84200D885B920681F
:1042D0004069C04300060BD5002044F8300F202170
:1042E0006173A073216941F0200121612073E4E72B
:1042F00020684069C0430006DBD4002070BD1E204A
:1043000000F01AB81FB5024607A16846FBF76CFF1C
:104310006846FCF797F882B24FF0FF3369460548CC
:10432000FFF7B6FC1FBD000041373A253035640D5C
:104330000A000000400200201FB51E2800D91E20E0
:10434000024607A16846FBF74FFF6846FCF77AF87C
:1043500082B24FF0FF3369460448FFF799FC1FBD56
:1043600041463A253032640D0A0000004002002028
:10437000042801D3012070470349044A31F8101082
:1043800052F82000FEF764BAF660000850000020E2
:104390000020064A014600BF02F8101002EB40035D
:1043A000401CC0B259700428F6D370474800002062
:1043B00070B50024184D26462046FFF7D9FF15F8A2
:1043C000141021B101290AD0022915D117E0C0B972
:1043D000012005F8140005EB4400467011E058B9BF
:1043E00005EB44004178491CC9B24170022908D349
:1043F000022005F8140004E005F8146001E001282B
:1044000004D0641CE4B2042CD6D370BD2146012034
:10441000FDF738FDF0E700004800002000220121F0
:104420000148FEF722BA0000000C014001210148BA
:10443000FEF713BA000C014010B50548FDF73CFD2E
:10444000BDE81040012203490148FDF7F9BE000014
:104450009400002062000020084840F6FF710088A8
:10446000B0F5805F00D308466FF06302A0F6FF70DE
:104470005043B0FBF1F0C0B2704700006200002072
:104480007047000002210148FEF7E2B90008014030
:104490003EB5002411480094019402940E498460B2
:1044A000016001250573047505614FF460214460C6
:1044B000C161FDF7EFFD08B1FDF7B6FC05200094E2
:1044C000CDE9015069460548FDF762FD002801D09D
:1044D000FDF7AAFC3EBD000000240140940000202E
:1044E0000D4808B5416941F0010141614069002270
:1044F00000F00100009011460B20FEF7E7FB0B20B7
:10450000FEF7D6FB002211461020FEF7DFFBBDE8C8
:1045100008401020FEF7CCBB001002402DE9F0430C
:1045200085B000243D48009401940294039481696D
:1045300041F010018161816901F0100104918169EC
:1045400041F020018161816901F0200104918169BC
:1045500041F004018161816901F0040104918169E4
:1045600041F00801816180692D4F00F008004FF48F
:1045700000550490002229463846FEF776F9DFF808
:10458000A480012211464046FEF76FF9DFF89890AB
:1045900000224FF418414846FEF767F900224FF415
:1045A00040714046FEF761F9009502260125039609
:1045B000CDE9015469463846FEF75AF80096694637
:1045C0004846CDE90145FEF753F840F20130CDE908
:1045D0000005CDE9024669464046FEF749F84FF42A
:1045E00070408DE8310069464046FEF741F8E80228
:1045F000009001AA112082E8610069464846FEF752
:1046000037F84FF41040CDE90005CDE90246694680
:104610004846FEF72DF805B0BDE8F08300100240D3
:1046200000100140000C0140000801400D4810B589
:104630000B4901600C49416000214FF480428160C8
:10464000C0E9031241618161C1610162FEF718F99D
:10465000002803D0BDE81040FDF7E6BB10BD000008
:104660000054004008010020801A0600094810B5D7
:10467000074901600621416040F271218160FEF727
:1046800089FA002803D0BDE81040FDF7CDBB10BD6E
:10469000003000405C01002010B586B000241648B0
:1046A000009401940294039404944FF08041059483
:1046B00001604721C0E9011440F2E731C0E9031469
:1046C0008461FEF7B9FE08B1FDF7AEFB4FF48050F0
:1046D000009069460848FEF725FF08B1FDF7A4FBE6
:1046E000049404A904480594FEF772FE002801D042
:1046F000FDF79AFB06B010BD680100200C4810B50C
:104700000A4901604FF4E1314160002181600C22CF
:10471000C160C0E904128161C161FFF7D1F90028CD
:1047200003D0BDE81040FDF77FBB10BD003801404D
:10473000B00100200C4810B50A4901604FF4165131
:104740004160002181600C22C160C0E904128161D6
:10475000C161FFF7B5F9002803D0BDE81040FDF7AF
:1047600063BB10BD00440040F80100200C4810B5A8
:104770000A4901604FF416514160002181600C220A
:10478000C160C0E904128161C161FFF799F9002895
:1047900003D0BDE81040FDF747BB10BD0048004006
:1047A0004002002021B1012904D0022910D016E0D6
:1047B000A8B916E0A8B1012804D0022804D0032823
:1047C0000DD103E002207047042070470720704796
:1047D00038B1012807D0022807D0032807D00020CD
:1047E000704701207047032070470520704708205C
:1047F0007047FEE70848A0F1200102782AB1012A9B
:1048000005D0022A06D1002202E0012200E00222A5
:1048100002700A7070470000200000202DE9F0416E
:10482000234C6078002841D0A088401CA080A0883C
:10483000E18888423AD30020A080A078012832D0B5
:10484000A078022832D1207810F1070000F007008C
:1048500020702578174E184F4FF4807116F82520D8
:104860003846FEF702F806EB850579156A78384672
:10487000FDF7FBFF114EAA78B9143046FDF7F5FF9E
:10488000EA784FF400413046FDF7EFFFA0680028BA
:104890000CD0A068401EA060A068002806D1BDE82A
:1048A000F04100F021B82078401CCFE7BDE8F0814E
:1048B00064000020FE600008000C01400008014078
:1048C00009034FF4B472B1FBF2F242B105498A60B8
:1048D00088700120487049780520FDF7D3BA00F0B0
:1048E00003B800006400002010B50B4C002060707D
:1048F000A060A07002464FF440710848FDF7B5FF74
:1049000000224FF410410648FDF7AFFF6178BDE883
:1049100010400520FDF7B6BA64000020000C0140ED
:1049200000080140FEE7000030B40021084C0A46B0
:10493000002004EBC1131A54401CC0B28028FAD3E3
:10494000491CC9B20829F3D330BC00F077B8000085
:104950005803002010B5C820FDF778FE0021AE20D6
:1049600000F076FB0021202000F072FB00210220E5
:1049700000F06EFB0021084600F06AFB00211020C9
:1049800000F066FB0021402000F062FB0021812046
:1049900000F05EFB0021CF2000F05AFB0021A12097
:1049A00000F056FB0021C82000F052FB0021A62099
:1049B00000F04EFB0021A82000F04AFB00213F2020
:1049C00000F046FB0021D32000F042FB0021084606
:1049D00000F03EFB0021D52000F03AFB00218020B2
:1049E00000F036FB0021D92000F032FB0021F1203D
:1049F00000F02EFB0021DA2000F02AFB002112201B
:104A000000F026FB0021DB2000F022FB00214020EB
:104A100000F01EFB00218D2000F01AFB0021142065
:104A200000F016FB0021A42000F012FBFFF77CFF32
:104A30000021BDE81040AF2000F00ABBFEB5002405
:104A40006425104F802600BF04F1B000C0B20021E1
:104A500000F0FEFA0021084600F0FAFA00211020CA
:104A600000F0F6FA07EBC410CDE90006012340225E
:104A7000782102950448FDF7C7FF641CE4B2082CB6
:104A8000E2D3FEBD580300200801002070B5A8B095
:104A90003A4800F027FC802107A8FBF759FD384C65
:104AA000606801F0C5F805460E46206801F0C0F8C0
:104AB000228902AB069283E86300304D31A1A878C9
:104AC00000906B782A7807A8FBF78EFB10260096DB
:104AD0002A7802230021202000F05AF9102338A25E
:104AE0000021302000F095F900966A780223002119
:104AF000382000F04DF9102331A20021482000F0A9
:104B000088F90096AA7802230021502000F040F98D
:104B1000206801F0DDF902460223102128200096CA
:104B200000F036F9606801F0D3F902460223102143
:104B30006820009600F02CF900962289022320219B
:104B4000482000F025F9102325222021602000F0C4
:104B5000B1F8A07A012801D010B10BE0332200E0B7
:104B600032223021482000F0F5F83422302158203C
:104B700000F0F0F8FFF762FF28B070BD740000206D
:104B800058070020E697B6E997B43A253032643AE0
:104B9000253032643A2530326420E6B8A9E5BAA659
:104BA0003A252E31664320E6B9BFE5BAA63A252E4E
:104BB0003166252520E58589E785A73A256400002B
:104BC0003A00000070B5A6B02A4800F08BFB8021A7
:104BD00006A8FBF7BDFC284E706801F029F80446D2
:104BE0000D46306801F024F802AA82E83300214C17
:104BF00022A1A07800906378227806A8FBF7F4FA47
:104C000010250095227802230021202000F0C0F812
:104C1000102327A20021302000F0FBF800956278D5
:104C200002230021382000F0B3F8102320A2002135
:104C3000482000F0EEF80095A278022300215020D1
:104C400000F0A6F8306801F043F902460223102173
:104C50002820009500F09CF8706801F039F90246B0
:104C6000022310216820009500F092F8FFF7E6FE7D
:104C700026B070BD7400002058070020E697B6E902
:104C800097B43A253032643A253032643A253032CE
:104C90006420E6B8A9E5BAA63A252E31664320E697
:104CA000B9BFE5BAA63A252E3166252500000000D9
:104CB0003A00000030B5203A0024D5B27F2802D94E
:104CC0000020891CC9B21F4A102B13D00C2B24D0F2
:104CD000062B0ED11C4B05EB4505C90803EB45031C
:104CE00002EBC1111A5D0519641CE4B24A55062C89
:104CF000F8D330BD154BC90802EBC11103EB051207
:104D00000319155DCD5415190B44641C2D7AE4B2BA
:104D100083F88050082CF3D330BD0D4B05EB4505CF
:104D2000C90803EB850302EBC11102191D5D8D5407
:104D30001D190A44641CAD79E4B282F88050062C37
:104D4000F3D330BD580300201E610008BA67000885
:104D50004663000830B5702815D8302913D80023D1
:104D6000094C0A4DC90805EBC11104EB4212C418E5
:104D7000D55C0D55D5180C445B1C2D7CDBB284F83A
:104D80008050102BF3D330BDAA6D000858030020CB
:104D90002DE9F04F1D46099E92468B4681464FF005
:104DA00000080C2E04D0062E02D0770800242CE038
:104DB0000627FBE7281B401E0A22C1B2012000E0A3
:104DC0005043491EC9B2FBD2BAFBF0F00A21B0FB36
:104DD000F1F201FB1200B8F1000F05D1691E8C42FF
:104DE00002DA40B14FF001083030C2B207FB049044
:104DF000C0B2334604E007FB0490C0B23346302211
:104E00005946FFF757FF641CE4B2AC42D2D3BDE869
:104E1000F08F2DE9F04705461C46802017460E46C8
:104E2000A0EB5409C3F140084FEA530A18E0A94522
:104E300002D200253019C6B2B04503DA00252E464D
:104E4000FFF772FD3A78234631462846FFF732FFD6
:104E50000C2C0BD0062C09D050462844C5B27F1C20
:104E6000387820385E28E2D9BDE8F0870620F4E7DC
:104E700038B52C4800F036FA2B4D102400942A78CF
:104E8000022300212020FFF783FF102327A2002107
:104E90003020FFF7BEFF00946A78022300213820FB
:104EA000FFF776FF102321A200214820FFF7B1FF72
:104EB0001C4800940223827800215020FFF768FFED
:104EC0001B4D286801F004F8024602231021282017
:104ED0000094FFF75DFF686800F0FAFF02460223C6
:104EE000102168200094FFF753FF12480D49807984
:104EF000091F032802D0042807D00EE0087860B10B
:104F0000102300210CA2202005E0087828B11023EE
:104F100009A200213820FFF77CFFBDE83840FFF7E9
:104F20008DBD000074000020030000203A00000046
:104F3000580700202000002020200000F8B53F4E38
:104F40003F4D1024B079012834D0314602280A7927
:104F50004FF002034FF030014FF00000009449D0B1
:104F6000FFF716FF102337A230211846FFF751FF35
:104F700010232D2230212820FFF79CFE00943021A1
:104F8000727902230846FFF703FF10232DA2302178
:104F90004020FFF73EFF30797179884206D910230F
:104FA00029A230215FF06400FFF733FFBDE8F8402D
:104FB000FFF744BD2878A8B1102324A23021002097
:104FC000FFF727FF10231FA230211846FFF721FF0C
:104FD00010232D2230212820FFF76CFE00947279D7
:104FE000022325E0009402236A7830210020FFF795
:104FF000CFFEE7E7FFF7CCFE102312A230211846C0
:10500000FFF707FF10232D2230212820FFF752FE43
:10501000287850B1302110230CA20846FFF7F9FE82
:105020001023302107A24020BEE700946A780223B3
:1050300030210846FFF7ACFEF2E700002000002018
:10504000700000203A3030002B310000202000009A
:1050500003B583B061B140226423012103A88DE828
:105060000B000B4678210348FDF7CEFC05B000BDD0
:105070000022F1E70801002010B50022102110469F
:10508000FFF768FE102102220846FFF763FE102397
:105090003A2219462020FFF70DFE01221021402060
:1050A000FFF758FE022210215020FFF753FE102375
:1050B0003A2219466020FFF7FDFD0322202100203F
:1050C000FFF748FE042220211020FFF743FE202195
:1050D00005220846FFF73EFE022220213020FFF77E
:1050E00039FE10233A2220214020FFF7E3FD12224F
:1050F00030210020FFF72EFE132230211020FFF771
:1051000029FE142230212020FFF724FE3021152211
:105110000846FFF71FFE10233A2230214020FFF7F8
:10512000C9FDBDE81040FFF789BC10B50022102171
:105130001046FFF70FFE102102220846FFF70AFE75
:1051400010233A2219462020FFF7B4FD0122102136
:105150004020FFF7FFFD022210215020FFF7FAFD4B
:1051600010233A2219466020FFF7A4FD392220219E
:105170000020FFF7EFFD3A2220211020FFF7EAFD83
:1051800020213A220846FFF7E5FD36222021302073
:10519000FFF7E0FDBDE81040FFF750BC10B500225E
:1051A00010211046FFF7D6FD102102220846FFF716
:1051B000D1FD10233A2219462020FFF77BFD012262
:1051C00010214020FFF7C6FD022210215020FFF7DA
:1051D000C1FD10233A2219466020FFF76BFD1E2205
:1051E00020210020FFF7B6FD1F2220211020FFF70D
:1051F000B1FD20213D220846FFF7ACFD3E222021D3
:105200003020FFF7A7FD10233A2220214020FFF78E
:1052100051FD0D48407801280FD003280DD02A22D7
:1052200020216020FFF796FD2B2220217020FFF720
:1052300091FDBDE81040FFF701BC2822202160202D
:10524000FFF788FD2922F0E7200000207047704713
:1052500010B5114C211D2046FCF704FDFFF7FCF8AA
:105260002081FFF70FF9A07220892D2801D200219B
:1052700002E0372803D901210320FCF703FEA07ABE
:1052800038B1012807D10021BDE810400420FCF707
:10529000F9BD0121F8E710BD580700200F49087833
:1052A000012819D10E484278002A15D18278002AA7
:1052B00012D10B4A0078121F137898420CD010704C
:1052C0004A79904201D1002103E00979884203D153
:1052D00001210620FCF7D6BD704700002000002009
:1052E00084000020002806D072B603498A88028014
:1052F0008979817062B670478000002010B518234C
:10530000B0FBF3F403FB1403084803703C23B1FB28
:10531000F3F403FB14114170B2FBF3F103FB112111
:10532000817002490020091F488010BD84000020C0
:1053300010B572B61823B0FBF3F403FB140307484F
:1053400003703C23B1FBF3F403FB14114170B2FB77
:10535000F3F103FB1121817062B610BD84000020BF
:1053600010484188491C89B24180B1F57A7F17D332
:1053700000214180001D8278521CD2B282703C2AEA
:1053800003D381704278521C427042783C2A03D386
:1053900041700278521C02700278182A00D3017002
:1053A0007047000080000020FDF72ABC30B593B0A4
:1053B00028216846FBF7CCF814210AA8FBF7C8F8A7
:1053C00000250F9509200121109500901195129547
:1053D0004FF4803004910691CDE901050224CDE916
:1053E00007404FF4E01009906846FDF74BFE08B106
:1053F00072B6FEE70AA90F2081E831004FF4806001
:10540000CDE90D0502210AA8FDF75AFD08B172B6D3
:10541000FEE74FF4004011900F940FA8FDF7DAFC5F
:10542000002801D072B6FEE713B030BD704700000F
:105430007CB504460078304D042811D160680128FD
:1054400011D105F12006F070FCF784FB707801287B
:1054500006D02878032803D0BDE87C40FCF7B2BB17
:105460002078022809D02878092817D2DFE800F030
:10547000171C21262B30353A3F00A0888DF80000FC
:10548000000A8DF801006068000C8DF80200606869
:10549000000E8DF803006846FCF724F97CBD204619
:1054A000BDE87C40FEF770BC2046BDE87C40FEF7BE
:1054B000C3BC2046BDE87C40FEF794BC2046BDE856
:1054C0007C40FEF7EFBC2046BDE87C40FEF732BCD6
:1054D0002046BDE87C40FEF727BD2046BDE87C4065
:1054E000FEF7F6BC2046BDE87C40FEF74BBD2046EB
:1054F000BDE87C40FEF734BC000000200148FEF708
:1055000080B8000068010020F0B50268194B1A4C01
:105510001A4D4FF08047984205D0B84203D0A042C0
:1055200001D0A84203D122F070064A683243984263
:1055300005D0B84203D0A04201D0A84203D122F442
:105540004074CA6822434C6922F080022243026000
:105550008A68C2620A688262984201D1096901635D
:10556000012141610169C90703D0016921F00101ED
:105570000161F0BD002C0140000400400008004023
:1055800010B5846842EA032224F47F440A4322438C
:10559000826010BD826822F070020A4342F0070167
:1055A0008160704710B5036A046A24F00104046244
:1055B000846924F0F00444EA021423F00A020A4346
:1055C0008461026210BD10B5036A046A24F01004FD
:1055D0000462846923F0A00324F4704444EA023294
:1055E00043EA01118261016210BD10B5406A0021D9
:1055F000C185C184FEF72CF910BD70B5446A2068DE
:10560000406994F84110C0F3C0100025212904D14D
:1056100018B1E584204600F099F82068406994F8B4
:105620004210C0F38010222904D118B1E58520462C
:1056300000F065F8606C40F0100060642046FEF7F2
:1056400007F970BD10B50146406A096809684FF056
:10565000000289062ED4C28501680C3151E8003F52
:1056600023F4807341E80034002CF5D10168143133
:1056700051E8003F23F0010341E80034002CF5D14C
:105680000168143151E8003F23F0400341E8003441
:10569000002CF5D1202180F84210016B012909D19D
:1056A00001680C3151E8003F23F0100341E8003459
:1056B000002CF5D14263016B012902D0FEF7E6FA16
:1056C00010BD818DFEF775F810BD10B5406A01213F
:1056D0004163016B012902D0FEF7D9FA10BD818D1B
:1056E0004908FEF766F810BD10B5406A0021C18573
:1056F000202280F842200163FEF75CF810BD0168AB
:105700000C3151E8002F22F4907241E80023002B65
:10571000F5D10168143151E8002F22F0010241E86F
:105720000023002BF5D1016B012909D101680C314F
:1057300051E8002F22F0100241E80023002BF5D1A0
:10574000202180F8421000210163704701680C316C
:1057500051E8002F22F0C00241E80023002BF5D1D0
:10576000202180F84110704708B590F84210222996
:1057700001D0022008BD82684FF480539A4201D1C3
:10578000016921B1816A9A421BD04AB10AE00268DC
:10579000816A5268C2F308020A80816A891C08E0A3
:1057A000026972B10268526802F07F020A70816A6F
:1057B000491C8162C18D491E0904090CC18503D0B1
:1057C0001BE002685268F1E70168CA6822F0200213
:1057D000CA600168CA6822F48072CA6001684A69B6
:1057E00022F001024A61202180F842100021416329
:1057F000026B012A03D0FEF749FA002008BD0163BD
:1058000001680C3151E8002F22F0100241E800231A
:10581000002BF5D101680A68D20602D50A684968EA
:105820000091818DFDF7C5FFE7E7000070B50446E4
:1058300000680169E26821F4405111430161216966
:10584000A0680843616908432168CA6841F20C6393
:105850009A430243CA6020684169A26921F44071F9
:10586000114341611E492068884202D1FDF7D4FBF3
:1058700001E0FDF7C1FB00EBC00101EB0012606825
:1058800064218000B2FBF0F3B3FBF1F36FF0180674
:105890007343B2FBF0F5B2FBF0F605EB8305322360
:1058A00003EB0515B5FBF1F5B6FBF1F605F0F005D8
:1058B00005EB0615B2FBF0F6B2FBF0F0B0FBF1F031
:1058C0006FF01802504306EB800003EB0010B0FBB2
:1058D000F1F0216800F00F002844886070BD0000DE
:1058E0000038014038B581620446828500201346A5
:1058F0006064222284F84220E56B1B4AAA62E56BB1
:105900001A4AEA62E56B1A4A2A63E26B50630A4656
:105910002168E06B091DFCF761FE206801684068A2
:105920000090206948B120680C3050E8001F41F415
:10593000807140E80012002AF5D12068143050E848
:10594000001F41F0010140E80012002AF5D1206853
:10595000143050E8001F41F0400140E80012002AD6
:10596000F5D1002038BD000045560008CB56000890
:10597000FB5500082DE9F843984617460D460446A6
:10598000089E24E0701C22D0FCF774FFA0EB0800F6
:10599000B0421AD8CEB12068C168490717D5802D0A
:1059A00015D0402D13D00168C94309070FD40168F1
:1059B0000025406800902046FFF7A1FE08206064A3
:1059C00084F840500120BDE8F8830320FBE72068FD
:1059D000006835EA000004D00020B842D2D0002090
:1059E000F1E70120F9E7000070B5FCF743FF2B4C0D
:1059F000A168401AB0F5FA7F06D3FCF73BFFA06020
:105A00002078A0B100202070254DA178254E28785F
:105A1000884203D13078E178884218D0FEF784FFBD
:105A2000287830B1012807D002280AD107E00120E8
:105A3000E9E7FFF721FB04E0FFF777FB01E0FFF761
:105A4000ADFB2878A0703078E0700020E060FCF7B3
:105A500011FFE168401AB0F5967F1DD3FCF70AFFED
:105A6000E0603078072809D0287858B101280DD097
:105A7000022811D1BDE87040FFF7A4B8BDE870401E
:105A8000FFF7F6B9BDE87040FFF700B8FFF79AF8E6
:105A9000BDE87040FFF752BA70BD000070000020F2
:105AA000200000200000002010B5FBF7F5FEBDE847
:105AB00010400148FDF7CEBEF8010020FEE7490086
:105AC00050EAC12018BF04204A0D18BF40F0010061
:105AD00040F2FF72B2EB515F08BF40F002000128B4
